{
  "_format": "hh-sol-artifact-1",
  "contractName": "TokenDeployer",
  "sourceName": "contracts/main/TokenDeployer.sol",
  "abi": [
    {
      "anonymous": false,
      "inputs": [
        {
          "indexed": false,
          "internalType": "string",
          "name": "name",
          "type": "string"
        },
        {
          "indexed": false,
          "internalType": "string",
          "name": "symbol",
          "type": "string"
        },
        {
          "indexed": false,
          "internalType": "uint256",
          "name": "initialSupply",
          "type": "uint256"
        },
        {
          "indexed": false,
          "internalType": "address",
          "name": "owner",
          "type": "address"
        }
      ],
      "name": "TokenDeployed",
      "type": "event"
    },
    {
      "inputs": [
        {
          "internalType": "string",
          "name": "name",
          "type": "string"
        },
        {
          "internalType": "string",
          "name": "symbol",
          "type": "string"
        },
        {
          "internalType": "uint256",
          "name": "initialSupply",
          "type": "uint256"
        },
        {
          "internalType": "address",
          "name": "owner",
          "type": "address"
        }
      ],
      "name": "deployToken",
      "outputs": [
        {
          "internalType": "address",
          "name": "token",
          "type": "address"
        }
      ],
      "stateMutability": "nonpayable",
      "type": "function"
    },
    {
      "inputs": [
        {
          "internalType": "string",
          "name": "",
          "type": "string"
        }
      ],
      "name": "tokenAddresses",
      "outputs": [
        {
          "internalType": "address",
          "name": "",
          "type": "address"
        }
      ],
      "stateMutability": "view",
      "type": "function"
    },
    {
      "inputs": [
        {
          "internalType": "uint256",
          "name": "",
          "type": "uint256"
        }
      ],
      "name": "tokenSymbols",
      "outputs": [
        {
          "internalType": "string",
          "name": "",
          "type": "string"
        }
      ],
      "stateMutability": "view",
      "type": "function"
    }
  ],
  "bytecode": "0x6080604052348015600f57600080fd5b5061276d8061001f6000396000f3fe608060405234801561001057600080fd5b50600436106100415760003560e01c80632efc6c04146100465780636e7ddea814610076578063935b13f6146100a6575b600080fd5b610060600480360381019061005b9190610663565b6100d6565b60405161006d9190610711565b60405180910390f35b610090600480360381019061008b919061072c565b610373565b60405161009d91906107d8565b60405180910390f35b6100c060048036038101906100bb91906107fa565b61041f565b6040516100cd9190610711565b60405180910390f35b60008073ffffffffffffffffffffffffffffffffffffffff166001856040516100ff919061087f565b908152602001604051809103902060009054906101000a900473ffffffffffffffffffffffffffffffffffffffff1673ffffffffffffffffffffffffffffffffffffffff1614610184576040517f08c379a000000000000000000000000000000000000000000000000000000000815260040161017b906108e2565b60405180910390fd5b60006040518060200161019690610468565b6020820181038252601f19601f82011660405250868686866040516020016101c19493929190610911565b6040516020818303038152906040526040516020016101e19291906109ab565b6040516020818303038152906040529050600086866040516020016102079291906109cf565b604051602081830303815290604052805190602001209050808251602084016000f59250600073ffffffffffffffffffffffffffffffffffffffff168373ffffffffffffffffffffffffffffffffffffffff160361029a576040517f08c379a000000000000000000000000000000000000000000000000000000000815260040161029190610a3f565b60405180910390fd5b826001876040516102ab919061087f565b908152602001604051809103902060006101000a81548173ffffffffffffffffffffffffffffffffffffffff021916908373ffffffffffffffffffffffffffffffffffffffff16021790555060008690806001815401808255809150506001900390600052602060002001600090919091909150908161032b9190610c6b565b507f167f2b06d5846856e477204ded4d541878475ead9f560674c189d13261a26ca8878787876040516103619493929190610911565b60405180910390a15050949350505050565b6000818154811061038357600080fd5b90600052602060002001600091509050805461039e90610a8e565b80601f01602080910402602001604051908101604052809291908181526020018280546103ca90610a8e565b80156104175780601f106103ec57610100808354040283529160200191610417565b820191906000526020600020905b8154815290600101906020018083116103fa57829003601f168201915b505050505081565b6001818051602081018201805184825260208301602085012081835280955050505050506000915054906101000a900473ffffffffffffffffffffffffffffffffffffffff1681565b6119fa80610d3e83390190565b6000604051905090565b600080fd5b600080fd5b600080fd5b600080fd5b6000601f19601f8301169050919050565b7f4e487b7100000000000000000000000000000000000000000000000000000000600052604160045260246000fd5b6104dc82610493565b810181811067ffffffffffffffff821117156104fb576104fa6104a4565b5b80604052505050565b600061050e610475565b905061051a82826104d3565b919050565b600067ffffffffffffffff82111561053a576105396104a4565b5b61054382610493565b9050602081019050919050565b82818337600083830152505050565b600061057261056d8461051f565b610504565b90508281526020810184848401111561058e5761058d61048e565b5b610599848285610550565b509392505050565b600082601f8301126105b6576105b5610489565b5b81356105c684826020860161055f565b91505092915050565b6000819050919050565b6105e2816105cf565b81146105ed57600080fd5b50565b6000813590506105ff816105d9565b92915050565b600073ffffffffffffffffffffffffffffffffffffffff82169050919050565b600061063082610605565b9050919050565b61064081610625565b811461064b57600080fd5b50565b60008135905061065d81610637565b92915050565b6000806000806080858703121561067d5761067c61047f565b5b600085013567ffffffffffffffff81111561069b5761069a610484565b5b6106a7878288016105a1565b945050602085013567ffffffffffffffff8111156106c8576106c7610484565b5b6106d4878288016105a1565b93505060406106e5878288016105f0565b92505060606106f68782880161064e565b91505092959194509250565b61070b81610625565b82525050565b60006020820190506107266000830184610702565b92915050565b6000602082840312156107425761074161047f565b5b6000610750848285016105f0565b91505092915050565b600081519050919050565b600082825260208201905092915050565b60005b83811015610793578082015181840152602081019050610778565b60008484015250505050565b60006107aa82610759565b6107b48185610764565b93506107c4818560208601610775565b6107cd81610493565b840191505092915050565b600060208201905081810360008301526107f2818461079f565b905092915050565b6000602082840312156108105761080f61047f565b5b600082013567ffffffffffffffff81111561082e5761082d610484565b5b61083a848285016105a1565b91505092915050565b600081905092915050565b600061085982610759565b6108638185610843565b9350610873818560208601610775565b80840191505092915050565b600061088b828461084e565b915081905092915050565b7f546f6b656e20616c7265616479206465706c6f79656400000000000000000000600082015250565b60006108cc601683610764565b91506108d782610896565b602082019050919050565b600060208201905081810360008301526108fb816108bf565b9050919050565b61090b816105cf565b82525050565b6000608082019050818103600083015261092b818761079f565b9050818103602083015261093f818661079f565b905061094e6040830185610902565b61095b6060830184610702565b95945050505050565b600081519050919050565b600081905092915050565b600061098582610964565b61098f818561096f565b935061099f818560208601610775565b80840191505092915050565b60006109b7828561097a565b91506109c3828461097a565b91508190509392505050565b60006109db828561084e565b91506109e7828461084e565b91508190509392505050565b7f546f6b656e206465706c6f796d656e74206661696c6564000000000000000000600082015250565b6000610a29601783610764565b9150610a34826109f3565b602082019050919050565b60006020820190508181036000830152610a5881610a1c565b9050919050565b7f4e487b7100000000000000000000000000000000000000000000000000000000600052602260045260246000fd5b60006002820490506001821680610aa657607f821691505b602082108103610ab957610ab8610a5f565b5b50919050565b60008190508160005260206000209050919050565b60006020601f8301049050919050565b600082821b905092915050565b600060088302610b217fffffffffffffffffffffffffffffffffffffffffffffffffffffffffffffffff82610ae4565b610b2b8683610ae4565b95508019841693508086168417925050509392505050565b6000819050919050565b6000610b68610b63610b5e846105cf565b610b43565b6105cf565b9050919050565b6000819050919050565b610b8283610b4d565b610b96610b8e82610b6f565b848454610af1565b825550505050565b600090565b610bab610b9e565b610bb6818484610b79565b505050565b5b81811015610bda57610bcf600082610ba3565b600181019050610bbc565b5050565b601f821115610c1f57610bf081610abf565b610bf984610ad4565b81016020851015610c08578190505b610c1c610c1485610ad4565b830182610bbb565b50505b505050565b600082821c905092915050565b6000610c4260001984600802610c24565b1980831691505092915050565b6000610c5b8383610c31565b9150826002028217905092915050565b610c7482610759565b67ffffffffffffffff811115610c8d57610c8c6104a4565b5b610c978254610a8e565b610ca2828285610bde565b600060209050601f831160018114610cd55760008415610cc3578287015190505b610ccd8582610c4f565b865550610d35565b601f198416610ce386610abf565b60005b82811015610d0b57848901518255600182019150602085019450602081019050610ce6565b86831015610d285784890151610d24601f891682610c31565b8355505b6001600288020188555050505b50505050505056fe608060405234801561001057600080fd5b506040516119fa3803806119fa83398181016040528101906100329190610552565b838381600390816100439190610808565b5080600490816100539190610808565b50505061008a8161006861009360201b60201c565b600a6100749190610a49565b8461007f9190610a94565b61009c60201b60201c565b50505050610b95565b60006012905090565b600073ffffffffffffffffffffffffffffffffffffffff168273ffffffffffffffffffffffffffffffffffffffff160361010e5760006040517fec442f050000000000000000000000000000000000000000000000000000000081526004016101059190610ae5565b60405180910390fd5b6101206000838361012460201b60201c565b5050565b600073ffffffffffffffffffffffffffffffffffffffff168373ffffffffffffffffffffffffffffffffffffffff160361017657806002600082825461016a9190610b00565b92505081905550610249565b60008060008573ffffffffffffffffffffffffffffffffffffffff1673ffffffffffffffffffffffffffffffffffffffff16815260200190815260200160002054905081811015610202578381836040517fe450d38c0000000000000000000000000000000000000000000000000000000081526004016101f993929190610b43565b60405180910390fd5b8181036000808673ffffffffffffffffffffffffffffffffffffffff1673ffffffffffffffffffffffffffffffffffffffff16815260200190815260200160002081905550505b600073ffffffffffffffffffffffffffffffffffffffff168273ffffffffffffffffffffffffffffffffffffffff160361029257806002600082825403925050819055506102df565b806000808473ffffffffffffffffffffffffffffffffffffffff1673ffffffffffffffffffffffffffffffffffffffff168152602001908152602001600020600082825401925050819055505b8173ffffffffffffffffffffffffffffffffffffffff168373ffffffffffffffffffffffffffffffffffffffff167fddf252ad1be2c89b69c2b068fc378daa952ba7f163c4a11628f55a4df523b3ef8360405161033c9190610b7a565b60405180910390a3505050565b6000604051905090565b600080fd5b600080fd5b600080fd5b600080fd5b6000601f19601f8301169050919050565b7f4e487b7100000000000000000000000000000000000000000000000000000000600052604160045260246000fd5b6103b082610367565b810181811067ffffffffffffffff821117156103cf576103ce610378565b5b80604052505050565b60006103e2610349565b90506103ee82826103a7565b919050565b600067ffffffffffffffff82111561040e5761040d610378565b5b61041782610367565b9050602081019050919050565b60005b83811015610442578082015181840152602081019050610427565b60008484015250505050565b600061046161045c846103f3565b6103d8565b90508281526020810184848401111561047d5761047c610362565b5b610488848285610424565b509392505050565b600082601f8301126104a5576104a461035d565b5b81516104b584826020860161044e565b91505092915050565b6000819050919050565b6104d1816104be565b81146104dc57600080fd5b50565b6000815190506104ee816104c8565b92915050565b600073ffffffffffffffffffffffffffffffffffffffff82169050919050565b600061051f826104f4565b9050919050565b61052f81610514565b811461053a57600080fd5b50565b60008151905061054c81610526565b92915050565b6000806000806080858703121561056c5761056b610353565b5b600085015167ffffffffffffffff81111561058a57610589610358565b5b61059687828801610490565b945050602085015167ffffffffffffffff8111156105b7576105b6610358565b5b6105c387828801610490565b93505060406105d4878288016104df565b92505060606105e58782880161053d565b91505092959194509250565b600081519050919050565b7f4e487b7100000000000000000000000000000000000000000000000000000000600052602260045260246000fd5b6000600282049050600182168061064357607f821691505b602082108103610656576106556105fc565b5b50919050565b60008190508160005260206000209050919050565b60006020601f8301049050919050565b600082821b905092915050565b6000600883026106be7fffffffffffffffffffffffffffffffffffffffffffffffffffffffffffffffff82610681565b6106c88683610681565b95508019841693508086168417925050509392505050565b6000819050919050565b60006107056107006106fb846104be565b6106e0565b6104be565b9050919050565b6000819050919050565b61071f836106ea565b61073361072b8261070c565b84845461068e565b825550505050565b600090565b61074861073b565b610753818484610716565b505050565b5b818110156107775761076c600082610740565b600181019050610759565b5050565b601f8211156107bc5761078d8161065c565b61079684610671565b810160208510156107a5578190505b6107b96107b185610671565b830182610758565b50505b505050565b600082821c905092915050565b60006107df600019846008026107c1565b1980831691505092915050565b60006107f883836107ce565b9150826002028217905092915050565b610811826105f1565b67ffffffffffffffff81111561082a57610829610378565b5b610834825461062b565b61083f82828561077b565b600060209050601f8311600181146108725760008415610860578287015190505b61086a85826107ec565b8655506108d2565b601f1984166108808661065c565b60005b828110156108a857848901518255600182019150602085019450602081019050610883565b868310156108c557848901516108c1601f8916826107ce565b8355505b6001600288020188555050505b505050505050565b7f4e487b7100000000000000000000000000000000000000000000000000000000600052601160045260246000fd5b60008160011c9050919050565b6000808291508390505b60018511156109605780860481111561093c5761093b6108da565b5b600185161561094b5780820291505b808102905061095985610909565b9450610920565b94509492505050565b6000826109795760019050610a35565b816109875760009050610a35565b816001811461099d57600281146109a7576109d6565b6001915050610a35565b60ff8411156109b9576109b86108da565b5b8360020a9150848211156109d0576109cf6108da565b5b50610a35565b5060208310610133831016604e8410600b8410161715610a0b5782820a905083811115610a0657610a056108da565b5b610a35565b610a188484846001610916565b92509050818404811115610a2f57610a2e6108da565b5b81810290505b9392505050565b600060ff82169050919050565b6000610a54826104be565b9150610a5f83610a3c565b9250610a8c7fffffffffffffffffffffffffffffffffffffffffffffffffffffffffffffffff8484610969565b905092915050565b6000610a9f826104be565b9150610aaa836104be565b9250828202610ab8816104be565b91508282048414831517610acf57610ace6108da565b5b5092915050565b610adf81610514565b82525050565b6000602082019050610afa6000830184610ad6565b92915050565b6000610b0b826104be565b9150610b16836104be565b9250828201905080821115610b2e57610b2d6108da565b5b92915050565b610b3d816104be565b82525050565b6000606082019050610b586000830186610ad6565b610b656020830185610b34565b610b726040830184610b34565b949350505050565b6000602082019050610b8f6000830184610b34565b92915050565b610e5680610ba46000396000f3fe608060405234801561001057600080fd5b50600436106100935760003560e01c8063313ce56711610066578063313ce5671461013457806370a082311461015257806395d89b4114610182578063a9059cbb146101a0578063dd62ed3e146101d057610093565b806306fdde0314610098578063095ea7b3146100b657806318160ddd146100e657806323b872dd14610104575b600080fd5b6100a0610200565b6040516100ad9190610aaa565b60405180910390f35b6100d060048036038101906100cb9190610b65565b610292565b6040516100dd9190610bc0565b60405180910390f35b6100ee6102b5565b6040516100fb9190610bea565b60405180910390f35b61011e60048036038101906101199190610c05565b6102bf565b60405161012b9190610bc0565b60405180910390f35b61013c6102ee565b6040516101499190610c74565b60405180910390f35b61016c60048036038101906101679190610c8f565b6102f7565b6040516101799190610bea565b60405180910390f35b61018a61033f565b6040516101979190610aaa565b60405180910390f35b6101ba60048036038101906101b59190610b65565b6103d1565b6040516101c79190610bc0565b60405180910390f35b6101ea60048036038101906101e59190610cbc565b6103f4565b6040516101f79190610bea565b60405180910390f35b60606003805461020f90610d2b565b80601f016020809104026020016040519081016040528092919081815260200182805461023b90610d2b565b80156102885780601f1061025d57610100808354040283529160200191610288565b820191906000526020600020905b81548152906001019060200180831161026b57829003601f168201915b5050505050905090565b60008061029d61047b565b90506102aa818585610483565b600191505092915050565b6000600254905090565b6000806102ca61047b565b90506102d7858285610495565b6102e285858561052a565b60019150509392505050565b60006012905090565b60008060008373ffffffffffffffffffffffffffffffffffffffff1673ffffffffffffffffffffffffffffffffffffffff168152602001908152602001600020549050919050565b60606004805461034e90610d2b565b80601f016020809104026020016040519081016040528092919081815260200182805461037a90610d2b565b80156103c75780601f1061039c576101008083540402835291602001916103c7565b820191906000526020600020905b8154815290600101906020018083116103aa57829003601f168201915b5050505050905090565b6000806103dc61047b565b90506103e981858561052a565b600191505092915050565b6000600160008473ffffffffffffffffffffffffffffffffffffffff1673ffffffffffffffffffffffffffffffffffffffff16815260200190815260200160002060008373ffffffffffffffffffffffffffffffffffffffff1673ffffffffffffffffffffffffffffffffffffffff16815260200190815260200160002054905092915050565b600033905090565b610490838383600161061e565b505050565b60006104a184846103f4565b90507fffffffffffffffffffffffffffffffffffffffffffffffffffffffffffffffff8110156105245781811015610514578281836040517ffb8f41b200000000000000000000000000000000000000000000000000000000815260040161050b93929190610d6b565b60405180910390fd5b6105238484848403600061061e565b5b50505050565b600073ffffffffffffffffffffffffffffffffffffffff168373ffffffffffffffffffffffffffffffffffffffff160361059c5760006040517f96c6fd1e0000000000000000000000000000000000000000000000000000000081526004016105939190610da2565b60405180910390fd5b600073ffffffffffffffffffffffffffffffffffffffff168273ffffffffffffffffffffffffffffffffffffffff160361060e5760006040517fec442f050000000000000000000000000000000000000000000000000000000081526004016106059190610da2565b60405180910390fd5b6106198383836107f5565b505050565b600073ffffffffffffffffffffffffffffffffffffffff168473ffffffffffffffffffffffffffffffffffffffff16036106905760006040517fe602df050000000000000000000000000000000000000000000000000000000081526004016106879190610da2565b60405180910390fd5b600073ffffffffffffffffffffffffffffffffffffffff168373ffffffffffffffffffffffffffffffffffffffff16036107025760006040517f94280d620000000000000000000000000000000000000000000000000000000081526004016106f99190610da2565b60405180910390fd5b81600160008673ffffffffffffffffffffffffffffffffffffffff1673ffffffffffffffffffffffffffffffffffffffff16815260200190815260200160002060008573ffffffffffffffffffffffffffffffffffffffff1673ffffffffffffffffffffffffffffffffffffffff1681526020019081526020016000208190555080156107ef578273ffffffffffffffffffffffffffffffffffffffff168473ffffffffffffffffffffffffffffffffffffffff167f8c5be1e5ebec7d5bd14f71427d1e84f3dd0314c0f7b2291e5b200ac8c7c3b925846040516107e69190610bea565b60405180910390a35b50505050565b600073ffffffffffffffffffffffffffffffffffffffff168373ffffffffffffffffffffffffffffffffffffffff160361084757806002600082825461083b9190610dec565b9250508190555061091a565b60008060008573ffffffffffffffffffffffffffffffffffffffff1673ffffffffffffffffffffffffffffffffffffffff168152602001908152602001600020549050818110156108d3578381836040517fe450d38c0000000000000000000000000000000000000000000000000000000081526004016108ca93929190610d6b565b60405180910390fd5b8181036000808673ffffffffffffffffffffffffffffffffffffffff1673ffffffffffffffffffffffffffffffffffffffff16815260200190815260200160002081905550505b600073ffffffffffffffffffffffffffffffffffffffff168273ffffffffffffffffffffffffffffffffffffffff160361096357806002600082825403925050819055506109b0565b806000808473ffffffffffffffffffffffffffffffffffffffff1673ffffffffffffffffffffffffffffffffffffffff168152602001908152602001600020600082825401925050819055505b8173ffffffffffffffffffffffffffffffffffffffff168373ffffffffffffffffffffffffffffffffffffffff167fddf252ad1be2c89b69c2b068fc378daa952ba7f163c4a11628f55a4df523b3ef83604051610a0d9190610bea565b60405180910390a3505050565b600081519050919050565b600082825260208201905092915050565b60005b83811015610a54578082015181840152602081019050610a39565b60008484015250505050565b6000601f19601f8301169050919050565b6000610a7c82610a1a565b610a868185610a25565b9350610a96818560208601610a36565b610a9f81610a60565b840191505092915050565b60006020820190508181036000830152610ac48184610a71565b905092915050565b600080fd5b600073ffffffffffffffffffffffffffffffffffffffff82169050919050565b6000610afc82610ad1565b9050919050565b610b0c81610af1565b8114610b1757600080fd5b50565b600081359050610b2981610b03565b92915050565b6000819050919050565b610b4281610b2f565b8114610b4d57600080fd5b50565b600081359050610b5f81610b39565b92915050565b60008060408385031215610b7c57610b7b610acc565b5b6000610b8a85828601610b1a565b9250506020610b9b85828601610b50565b9150509250929050565b60008115159050919050565b610bba81610ba5565b82525050565b6000602082019050610bd56000830184610bb1565b92915050565b610be481610b2f565b82525050565b6000602082019050610bff6000830184610bdb565b92915050565b600080600060608486031215610c1e57610c1d610acc565b5b6000610c2c86828701610b1a565b9350506020610c3d86828701610b1a565b9250506040610c4e86828701610b50565b9150509250925092565b600060ff82169050919050565b610c6e81610c58565b82525050565b6000602082019050610c896000830184610c65565b92915050565b600060208284031215610ca557610ca4610acc565b5b6000610cb384828501610b1a565b91505092915050565b60008060408385031215610cd357610cd2610acc565b5b6000610ce185828601610b1a565b9250506020610cf285828601610b1a565b9150509250929050565b7f4e487b7100000000000000000000000000000000000000000000000000000000600052602260045260246000fd5b60006002820490506001821680610d4357607f821691505b602082108103610d5657610d55610cfc565b5b50919050565b610d6581610af1565b82525050565b6000606082019050610d806000830186610d5c565b610d8d6020830185610bdb565b610d9a6040830184610bdb565b949350505050565b6000602082019050610db76000830184610d5c565b92915050565b7f4e487b7100000000000000000000000000000000000000000000000000000000600052601160045260246000fd5b6000610df782610b2f565b9150610e0283610b2f565b9250828201905080821115610e1a57610e19610dbd565b5b9291505056fea2646970667358221220a53e20d1040c45de2c4d7201326d935bfa4168273bf654a2ba338abd43b5059664736f6c634300081c0033a2646970667358221220e337a9ee2d3bc7a0f19a6f9598d1a8eb05a3baa33d818dcee29c688ba442044d64736f6c634300081c0033",
  "linkReferences": {},
  "deployedLinkReferences": {}
}